:060000000A128A110C280F
:10000800FE00030EF2000A08F3000A128A111528EE
:100018000A128A110F28F001F10183010A128A11CC
:1000280041280B1D182819283A2805308312031374
:1000380081000130F0070318F10A0030F10764303D
:1000480070067104031D29282A2839280310081C62
:10005800031403183028342883120313081437288C
:10006800831203130810F001F1010B1173088A00C1
:10007800720E8300FE0E7E0E0900013083160313F4
:10008800810005308312031381008B160B118B1727
:10009800831603138801FF30831203138800532843
:0600A8000A128A110C2867
:08400000FF3FFF3FFF3FFF3FC0
:02400E00393F38
:00000001FF
