:060000000A128A11FC2F18
:100E7400831603138801FF30831203138800FF30A5
:100E8400F0007008FB00F301F4017B08F000700728
:100E9400F1007108FB007B08831203138800023001
:100EA400F2000430F100BA30F000F00B572FF10BD0
:100EB400572FF20B572F00000130F3070318F40AE1
:100EC4000030F4077408803AFF0080307F02031D6D
:100ED4006D2F08307302031C702F712F472FF501FB
:100EE400F6010314FB0D7B08831203138800023000
:100EF400F2000430F100BA30F000F00B7F2FF10B58
:100F04007F2FF20B7F2F00000130F5070318F60A3C
:100F14000030F6077608803AFF0080307F02031D18
:100F2400952F08307502031C982F992F732F7F304B
:100F3400F0007008FB00F701F8017B08F0000310D3
:100F4400700CF1007108FB007B0883120313880006
:100F54000230F2000430F100BA30F000F00BB02F90
:100F6400F10BB02FF20BB02F00000130F70703187C
:100F7400F80A0030F8077808803AFF0080307F02D2
:100F8400031DC62F08307702031CC92FCA2F9F2FB9
:100F9400F901FA017B08F0000310700C8038F100AD
:100FA4007108FB007B088312031388000230F200EF
:100FB4000430F100BA30F000F00BDE2FF10BDE2F1D
:100FC400F20BDE2F00000130F9070318FA0A003093
:100FD400FA077A08803AFF0080307F02031DF42F5D
:100FE40008307902031CF72FF82FCC2F452F0A1253
:0C0FF4008A11002883010A128A113A2F8A
:08400000FF3FFF3FFF3FFF3FC0
:02400E00393F38
:00000001FF
