:060000000A128A110C280F
:10000800FE00030EF0000A08F1000A128A111328F4
:100018000A128A110F2883010A128A1132288312C0
:1000280003130C1C182819282B280310081C031468
:1000380003181F2823288312031308142628831261
:1000480003130810D8308F00F0308E000C107108A0
:100058008A00700E8300FE0E7E0E090083120313C1
:10006800901210129010D8308F00F0308E001014BB
:10007800831603130C140B178B178801FF30831298
:0C0088000313880046280A128A110C2875
:08400000FF3FFF3FFF3FFF3FC0
:02400E00393F38
:00000001FF
