:060000000A128A110C280F
:10000800FE00030EF0000A08F1000A128A111328F4
:100018000A128A110F2883010A128A1142288B1C9E
:10002800162817282728031083120313081C031403
:1000380003181F2823288312031308142628831261
:10004800031308108B100B1C2A282B283B2803109D
:1000580083120313881C03140318332837288312C8
:10006800031388143A288312031388100B1071089D
:100078008A00700E8300FE0E7E0E09001130831672
:10008800031386008801FF30831203138800831648
:10009800031381138B1701170B168B108B150B107D
:0800A80054280A128A110C28E9
:08400000FF3FFF3FFF3FFF3FC0
:02400E00393F38
:00000001FF
