:060000000A128A11FC2F18
:100F9000831603138101013086008801FF3083121C
:100FA00003138800F201F301003006180130F40049
:100FB000740873060319DD2FDE2FF42F7408031D48
:100FC000E22FE32FE72F0130F0007008F2078230A4
:100FD000F100DD30F000F00BEB2FF10BEB2FF02FD9
:100FE0007408F0007008F30072098312031388007C
:100FF000D42F0A128A11002883010A128A11C82FDD
:08400000FF3FFF3FFF3FFF3FC0
:02400E00393F38
:00000001FF
