:060000000A128A110C280F
:10000800FE00030EF0000A08F1000A128A113328D4
:100018000A128A110F2883010A128A1113288316DB
:1000280003138801FF308312031388008316031318
:100038008C14831203138C100B178B171217921240
:100048001212921592101214FA30831603139200AA
:100058008312031312152F280A128A110C288312EF
:1000680003138C1C3828392847280310081C03144C
:1000780003183F28432883120313081446288312C1
:10008800031308108C1071088A00700E8300FE0E8E
:040098007E0E0900CF
:08400000FF3FFF3FFF3FFF3FC0
:02400E00393F38
:00000001FF
